:100000000C942A000C9447000C9447000C94470071
:100010000C9447000C9447000C9447000C94470044
:100020000C9447000C9447000C9447000C94470034
:100030000C9447000C9447000C9447000C94470024
:100040000C9447000C9447000C9447000C94470014
:100050000C94470011241FBECFE5D8E0DEBFCDBF12
:1000600010E0A0E6B0E0EAEEFCE002C005900D92E0
:10007000A039B107D9F710E0A0E9B0E001C01D92A6
:10008000A039B107E1F70E94CC020C9473060C94DE
:100090000000843409F471C0853448F4823499F145
:1000A000833408F04DC0813409F083C00FC082361C
:1000B00051F1833620F4813609F07BC007C08336C6
:1000C00009F43EC0843609F074C057C0413069F469
:1000D0002AB381E090E0AC0102C0440F551F6A953D
:1000E000E2F7BA01622B6ABB08952AB381E090E07F
:1000F000AC0102C0440F551F6A95E2F7BA01609542
:1001000062236ABB0895413069F427B381E090E02F
:10011000AC0102C0440F551F6A95E2F7BA01622B89
:1001200067BB089527B381E090E0AC0102C0440FA3
:10013000551F6A95E2F7BA016095622367BB08957F
:10014000413069F424B381E090E0AC0102C0440F77
:10015000551F6A95E2F7BA01622B64BB089524B378
:1001600081E090E0AC0102C0440F551F6A95E2F7B0
:10017000BA016095622364BB0895413069F421B3EC
:1001800081E090E0AC0102C0440F551F6A95E2F790
:10019000BA01622B61BB089521B381E090E0AC010C
:1001A00002C0440F551F6A95E2F7BA0160956223B9
:1001B00061BB0895843409F471C0853448F48234F5
:1001C00099F1833408F04DC0813409F083C00FC029
:1001D000823651F1833620F4813609F07BC007C0A6
:1001E000833609F43EC0843609F074C057C04130EC
:1001F00069F42BB381E090E0AC0102C0440F551FBD
:100200006A95E2F7BA01622B6BBB08952BB381E0CC
:1002100090E0AC0102C0440F551F6A95E2F7BA01A5
:10022000609562236BBB0895413069F428B381E087
:1002300090E0AC0102C0440F551F6A95E2F7BA0185
:10024000622B68BB089528B381E090E0AC0102C046
:10025000440F551F6A95E2F7BA016095622368BBA7
:100260000895413069F425B381E090E0AC0102C00B
:10027000440F551F6A95E2F7BA01622B65BB0895DA
:1002800025B381E090E0AC0102C0440F551F6A9590
:10029000E2F7BA016095622365BB0895413069F4C5
:1002A00022B381E090E0AC0102C0440F551F6A9573
:1002B000E2F7BA01622B62BB089522B381E090E0BD
:1002C000AC0102C0440F551F6A95E2F7BA01609570
:1002D000622362BB0895843409F43DC0853440F440
:1002E0008234F9F0833450F5813409F040C00CC0F9
:1002F0008236B9F0833618F48136C9F505C08336E5
:10030000E9F08436A1F527C02BB381E090E0AC0181
:1003100002C0440F551F6A95E2F7BA0162276BBB12
:10032000089528B381E090E0AC0102C0440F551F4E
:100330006A95E2F7BA01622768BB089525B381E0A8
:1003400090E0AC0102C0440F551F6A95E2F7BA0174
:10035000622765BB089522B381E090E0AC0102C042
:10036000440F551F6A95E2F7BA01622762BB0895F0
:100370008434B1F1853438F48234E1F0833428F5E3
:100380008134C1F50CC08236A9F0833618F4813669
:1003900089F505C08336C9F0843661F521C029B3DB
:1003A00030E0C90102C0959587956A95E2F7982FCC
:1003B000917020C026B330E0C90102C095958795A1
:1003C0006A95E2F7982F917015C023B330E0C90108
:1003D00002C0959587956A95E2F7982F91700AC0AB
:1003E00020B330E0C90102C0959587956A95E2F780
:1003F000982F9170892F08958434D9F0853438F47A
:10040000823499F0833498F48134A1F40CC082369C
:1004100061F0833618F4813669F405C0833639F00B
:10042000843641F406C06ABB089567BB089564BB77
:10043000089561BB08958434D9F0853438F482344A
:1004400099F0833498F48134A1F40CC0823661F0C1
:10045000833618F4813669F405C0833639F0843662
:1004600041F406C06BBB089568BB089565BB089551
:1004700062BB0895843409F1853438F48234A9F0DC
:100480008334B8F48134E1F40CC0823671F08336E1
:1004900018F48136A9F405C0833659F0843681F406
:1004A0000CC08BB380958BBB089588B3809588BBB7
:1004B000089585B3809585BB089582B3809582BBEE
:1004C00008958434D9F0853438F4823499F0833433
:1004D00098F48134A1F40CC0823661F0833618F4AC
:1004E000813669F405C0833639F0843641F406C09C
:1004F00099B305C096B303C093B301C090B3892FDD
:1005000008950E94DA000895CF93DF93C82FD62F65
:10051000462F417060E00E94DA004D2F46954170F1
:100520008C2F61E00E94DA004D2F46954695417070
:100530008C2F62E00E94DA00D695D695D6954D2F85
:1005400041708C2F63E00E94DA00DF91CF91089513
:10055000CF93DF93C82FD62F462F417064E00E94BF
:10056000DA004D2F469541708C2F65E00E94DA002D
:100570004D2F4695469541708C2F66E00E94DA001B
:10058000D695D695D6954D2F41708C2F67E00E9459
:10059000DA00DF91CF9108950E9443041FBC88B711
:1005A000806288BF81EC8EBD88B785FFFDCF88B79C
:1005B000806288BF86B597B521E82EBD28B725FF94
:1005C000FDCF28B7206228BF26B537B541EC4EBD18
:1005D00048B745FFFDCF48B7406248BFC6B4D7B45F
:1005E0001EBC1DBC1CBC8217930708F0DAC02C157A
:1005F0003D0508F0D6C0C81AD90A281B390BB90125
:1006000080E090E00E9440054B015C01EE24FF2455
:10061000C701B6010E9440059B01AC01C501B401B0
:100620000E94AC0420E030E048EC52E40E94CE0589
:100630000E941405862E60E072E18AE790E0A7012F
:1006400096010E945106E90180E690E00E94820432
:10065000882D6AE00E943106C92E805D0E94120436
:100660008C2D805D0E94120485E20E94120482E0BB
:1006700061E00E9491048CE690E00E94820487E28F
:10068000C031D807D8F1CE0160E177E20E943D0683
:10069000862F805D0E941204CE0168EE73E00E94F6
:1006A0003D06CB010F2EFAE0CF2EDD24F02DB60152
:1006B0000E943D06805D0E941204CE0164E670E057
:1006C0000E943D06CB01B6010E943D06805D0E945E
:1006D0001204CE01B6010E943D06C82FCB01B6011F
:1006E0000E943D06805D0E9412048C2F805D0E9456
:1006F000120482E790E00E9482045FC083E0C83E5B
:10070000D80778F1CE0168EE73E00E943D06862F8F
:10071000805D0E941204CE0164E670E00E943D06F6
:10072000CB010F2EFAE0CF2EDD24F02DB6010E9472
:100730003D06805D0E941204CE01B6010E943D0676
:10074000C82FCB01B6010E943D06805D0E941204B5
:100750008C2F805D0E94120482E790E00E94820448
:100760002CC0CE0164E670E00E943D06862F805DBD
:100770000E9412042AE030E0CE01B9010E943D0639
:10078000C82FCB01B9010E943D06805D0E94120472
:100790008C2F805D0E94120482E790E00E94820408
:1007A0000CC085E790E00E94820482E061E00E9434
:1007B000910482E890E00E948204FFCF82E460E02E
:1007C00041E00E94DA008FE99FE00197F1F700C055
:1007D000000082E460E040E00E94DA008FE99FE0E0
:1007E0000197F1F700C000000895CF93C82F82E46D
:1007F00061E040E00E94DA006C2F62956F7081E446
:100800000E94A8020E94DE0381E46C2F0E94A802CD
:100810000E94DE038FEC97E00197F1F700C0000023
:10082000CF910895CF93C82F82E461E041E00E9408
:10083000DA006C2F62956F7081E40E94A8020E941A
:10084000DE0381E46C2F0E94A8020E94DE038FEC7D
:1008500097E00197F1F700C00000CF91089581E083
:100860000E94F5038FE496E40197F1F700C00000C1
:10087000089582E00E94F5038FE496E40197F1F772
:1008800000C0000008958FE799EAA3E081509040EE
:10089000A040E1F700C0000081E464E041E00E9474
:1008A000490081E465E041E00E94490081E466E09E
:1008B00041E00E94490081E467E041E00E94490074
:1008C00082E460E041E00E94490082E461E041E0AE
:1008D0000E94490082E462E041E00E94490082E413
:1008E00062E040E00E94DA000E94390488E20E943F
:1008F000F5038EE00E94F5030E942F0486E00E941B
:10090000F5030895CF93DF93EC018881882331F0BC
:1009100021960E94120489918823D9F7DF91CF9103
:100920000895282F2150223070F4613170F466232D
:1009300071F0813019F4962F91580AC0823041F439
:10094000962F915405C090E803C090E801C090E84C
:10095000892F0E94F50308950CD0E6C0DED040F048
:10096000D5D030F021F45F3F19F0C7C0511110C14C
:10097000CAC0EBD098F39923C9F35523B1F3951B63
:10098000550BBB27AA2762177307840738F09F5FB0
:100990005F4F220F331F441FAA1FA9F333D00E2E1F
:1009A0003AF0E0E830D091505040E695001CCAF78C
:1009B00029D0FE2F27D0660F771F881FBB1F261751
:1009C00037074807AB07B0E809F0BB0B802DBF0124
:1009D000FF2793585F4F2AF09E3F510568F08DC066
:1009E000D7C05F3FECF3983EDCF38695779567952B
:1009F000B795F7959F5FC9F7880F911D96958795D5
:100A000097F90895E1E0660F771F881FBB1F6217F3
:100A100073078407BA0720F0621B730B840BBA0BB1
:100A2000EE1F88F7E095089598D088F09F5790F0D2
:100A3000B92F9927B751A0F0D1F0660F771F881F03
:100A4000991F1AF0BA95C9F712C0B13081F09FD042
:100A5000B1E008959CC0672F782F8827B85F39F0E0
:100A6000B93FCCF3869577956795B395D9F73EF462
:100A700090958095709561957F4F8F4F9F4F08950A
:100A8000E89409C097FB3EF4909580957095619528
:100A90007F4F8F4F9F4F9923A9F0F92F96E9BB27DE
:100AA0009395F695879577956795B795F111F8CF5A
:100AB000FAF4BB0F11F460FF1BC06F5F7F4F8F4FC5
:100AC0009F4F16C0882311F096E911C0772321F0BB
:100AD0009EE8872F762F05C0662371F096E8862F53
:100AE00070E060E02AF09A95660F771F881FDAF7AA
:100AF000880F9695879597F9089597F99F6780E8ED
:100B000070E060E008959FEF80EC089500240A945F
:100B10001616170618060906089500240A941216D8
:100B20001306140605060895092E0394000C11F40B
:100B3000882352F0BB0F40F4BF2B11F460FF04C0B8
:100B40006F5F7F4F8F4F9F4F089557FD9058440F11
:100B5000551F59F05F3F71F04795880F97FB991F1C
:100B600061F09F3F79F087950895121613061406D9
:100B7000551FF2CF4695F1DF08C016161706180666
:100B8000991FF1CF86957105610508940895E89441
:100B9000BB2766277727CB0197F908950BD0C4CFE1
:100BA000B5DF28F0BADF18F0952309F0A6CFABCF58
:100BB0001124EECFCADFA0F3959FD1F3950F50E03B
:100BC000551F629FF001729FBB27F00DB11D639FFF
:100BD000AA27F00DB11DAA1F649F6627B00DA11DA5
:100BE000661F829F2227B00DA11D621F739FB00D4B
:100BF000A11D621F839FA00D611D221F749F3327BB
:100C0000A00D611D231F849F600D211D822F762F53
:100C10006A2F11249F5750408AF0E1F088234AF050
:100C2000EE0FFF1FBB1F661F771F881F915050409C
:100C3000A9F79E3F510570F060CFAACF5F3FECF35C
:100C4000983EDCF3869577956795B795F795E79588
:100C50009F5FC1F7FE2B880F911D9695879597F999
:100C60000895991B79E004C0991F961708F0961B08
:100C7000881F7A95C9F780950895AA1BBB1B51E17F
:100C800007C0AA1FBB1FA617B70710F0A61BB70BFC
:100C9000881F991F5A95A9F780959095BC01CD01A1
:100CA0000895A1E21A2EAA1BBB1BFD010DC0AA1FAD
:100CB000BB1FEE1FFF1FA217B307E407F50720F0C5
:100CC000A21BB30BE40BF50B661F771F881F991F40
:100CD0001A9469F760957095809590959B01AC0189
:0A0CE000BD01CF010895F894FFCF85
:100CEA0044757479204379636C653A00467265717C
:100CFA003A00487A004672657175656E63792069B3
:100D0A0073006F7574206F662072616E67650000EC
:00000001FF
